{
  "contractName": "nifarm",
  "abi": [
    {
      "constant": true,
      "inputs": [],
      "name": "name",
      "outputs": [
        {
          "name": "",
          "type": "string"
        }
      ],
      "payable": false,
      "stateMutability": "view",
      "type": "function",
      "signature": "0x06fdde03"
    },
    {
      "constant": true,
      "inputs": [
        {
          "name": "",
          "type": "address"
        }
      ],
      "name": "balances",
      "outputs": [
        {
          "name": "",
          "type": "uint256"
        }
      ],
      "payable": false,
      "stateMutability": "view",
      "type": "function",
      "signature": "0x27e235e3"
    },
    {
      "constant": true,
      "inputs": [],
      "name": "decimals",
      "outputs": [
        {
          "name": "",
          "type": "uint8"
        }
      ],
      "payable": false,
      "stateMutability": "view",
      "type": "function",
      "signature": "0x313ce567"
    },
    {
      "constant": true,
      "inputs": [],
      "name": "_totalSupply",
      "outputs": [
        {
          "name": "",
          "type": "uint256"
        }
      ],
      "payable": false,
      "stateMutability": "view",
      "type": "function",
      "signature": "0x3eaaf86b"
    },
    {
      "constant": true,
      "inputs": [],
      "name": "standard",
      "outputs": [
        {
          "name": "",
          "type": "string"
        }
      ],
      "payable": false,
      "stateMutability": "view",
      "type": "function",
      "signature": "0x5a3b7e42"
    },
    {
      "constant": true,
      "inputs": [
        {
          "name": "",
          "type": "address"
        },
        {
          "name": "",
          "type": "address"
        }
      ],
      "name": "allowed",
      "outputs": [
        {
          "name": "",
          "type": "uint256"
        }
      ],
      "payable": false,
      "stateMutability": "view",
      "type": "function",
      "signature": "0x5c658165"
    },
    {
      "constant": false,
      "inputs": [],
      "name": "acceptOwnership",
      "outputs": [],
      "payable": false,
      "stateMutability": "nonpayable",
      "type": "function",
      "signature": "0x79ba5097"
    },
    {
      "constant": true,
      "inputs": [],
      "name": "owner",
      "outputs": [
        {
          "name": "",
          "type": "address"
        }
      ],
      "payable": false,
      "stateMutability": "view",
      "type": "function",
      "signature": "0x8da5cb5b"
    },
    {
      "constant": true,
      "inputs": [],
      "name": "symbol",
      "outputs": [
        {
          "name": "",
          "type": "string"
        }
      ],
      "payable": false,
      "stateMutability": "view",
      "type": "function",
      "signature": "0x95d89b41"
    },
    {
      "constant": true,
      "inputs": [
        {
          "name": "a",
          "type": "uint256"
        },
        {
          "name": "b",
          "type": "uint256"
        }
      ],
      "name": "safeSub",
      "outputs": [
        {
          "name": "c",
          "type": "uint256"
        }
      ],
      "payable": false,
      "stateMutability": "pure",
      "type": "function",
      "signature": "0xa293d1e8"
    },
    {
      "constant": true,
      "inputs": [
        {
          "name": "a",
          "type": "uint256"
        },
        {
          "name": "b",
          "type": "uint256"
        }
      ],
      "name": "safeDiv",
      "outputs": [
        {
          "name": "c",
          "type": "uint256"
        }
      ],
      "payable": false,
      "stateMutability": "pure",
      "type": "function",
      "signature": "0xb5931f7c"
    },
    {
      "constant": true,
      "inputs": [
        {
          "name": "a",
          "type": "uint256"
        },
        {
          "name": "b",
          "type": "uint256"
        }
      ],
      "name": "safeMul",
      "outputs": [
        {
          "name": "c",
          "type": "uint256"
        }
      ],
      "payable": false,
      "stateMutability": "pure",
      "type": "function",
      "signature": "0xd05c78da"
    },
    {
      "constant": true,
      "inputs": [],
      "name": "newOwner",
      "outputs": [
        {
          "name": "",
          "type": "address"
        }
      ],
      "payable": false,
      "stateMutability": "view",
      "type": "function",
      "signature": "0xd4ee1d90"
    },
    {
      "constant": true,
      "inputs": [
        {
          "name": "a",
          "type": "uint256"
        },
        {
          "name": "b",
          "type": "uint256"
        }
      ],
      "name": "safeAdd",
      "outputs": [
        {
          "name": "c",
          "type": "uint256"
        }
      ],
      "payable": false,
      "stateMutability": "pure",
      "type": "function",
      "signature": "0xe6cb9013"
    },
    {
      "constant": false,
      "inputs": [
        {
          "name": "_newOwner",
          "type": "address"
        }
      ],
      "name": "transferOwnership",
      "outputs": [],
      "payable": false,
      "stateMutability": "nonpayable",
      "type": "function",
      "signature": "0xf2fde38b"
    },
    {
      "inputs": [],
      "payable": false,
      "stateMutability": "nonpayable",
      "type": "constructor",
      "signature": "constructor"
    },
    {
      "payable": true,
      "stateMutability": "payable",
      "type": "fallback"
    },
    {
      "anonymous": false,
      "inputs": [
        {
          "indexed": true,
          "name": "_owner",
          "type": "address"
        },
        {
          "indexed": true,
          "name": "_spender",
          "type": "address"
        },
        {
          "indexed": false,
          "name": "_value",
          "type": "uint256"
        }
      ],
      "name": "Approval",
      "type": "event",
      "signature": "0x8c5be1e5ebec7d5bd14f71427d1e84f3dd0314c0f7b2291e5b200ac8c7c3b925"
    },
    {
      "anonymous": false,
      "inputs": [
        {
          "indexed": true,
          "name": "_from",
          "type": "address"
        },
        {
          "indexed": true,
          "name": "_to",
          "type": "address"
        },
        {
          "indexed": false,
          "name": "_value",
          "type": "uint256"
        }
      ],
      "name": "Transfer",
      "type": "event",
      "signature": "0xddf252ad1be2c89b69c2b068fc378daa952ba7f163c4a11628f55a4df523b3ef"
    },
    {
      "anonymous": false,
      "inputs": [
        {
          "indexed": true,
          "name": "_from",
          "type": "address"
        },
        {
          "indexed": true,
          "name": "_to",
          "type": "address"
        }
      ],
      "name": "OwnershipTransferred",
      "type": "event",
      "signature": "0x8be0079c531659141344cd1fd0a4f28419497f9722a3daafe3b4186f6b6457e0"
    },
    {
      "constant": true,
      "inputs": [],
      "name": "totalSupply",
      "outputs": [
        {
          "name": "",
          "type": "uint256"
        }
      ],
      "payable": false,
      "stateMutability": "view",
      "type": "function",
      "signature": "0x18160ddd"
    },
    {
      "constant": true,
      "inputs": [
        {
          "name": "tokenOwner",
          "type": "address"
        }
      ],
      "name": "balanceOf",
      "outputs": [
        {
          "name": "balance",
          "type": "uint256"
        }
      ],
      "payable": false,
      "stateMutability": "view",
      "type": "function",
      "signature": "0x70a08231"
    },
    {
      "constant": true,
      "inputs": [
        {
          "name": "tokenOwner",
          "type": "address"
        },
        {
          "name": "spender",
          "type": "address"
        }
      ],
      "name": "allowance",
      "outputs": [
        {
          "name": "remaining",
          "type": "uint256"
        }
      ],
      "payable": false,
      "stateMutability": "view",
      "type": "function",
      "signature": "0xdd62ed3e"
    },
    {
      "constant": false,
      "inputs": [
        {
          "name": "_to",
          "type": "address"
        },
        {
          "name": "_value",
          "type": "uint256"
        }
      ],
      "name": "transfer",
      "outputs": [
        {
          "name": "success",
          "type": "bool"
        }
      ],
      "payable": false,
      "stateMutability": "nonpayable",
      "type": "function",
      "signature": "0xa9059cbb"
    },
    {
      "constant": false,
      "inputs": [
        {
          "name": "_spender",
          "type": "address"
        },
        {
          "name": "_value",
          "type": "uint256"
        }
      ],
      "name": "approve",
      "outputs": [
        {
          "name": "success",
          "type": "bool"
        }
      ],
      "payable": false,
      "stateMutability": "nonpayable",
      "type": "function",
      "signature": "0x095ea7b3"
    },
    {
      "constant": false,
      "inputs": [
        {
          "name": "_from",
          "type": "address"
        },
        {
          "name": "_to",
          "type": "address"
        },
        {
          "name": "_value",
          "type": "uint256"
        }
      ],
      "name": "transferFrom",
      "outputs": [
        {
          "name": "success",
          "type": "bool"
        }
      ],
      "payable": false,
      "stateMutability": "nonpayable",
      "type": "function",
      "signature": "0x23b872dd"
    },
    {
      "constant": false,
      "inputs": [
        {
          "name": "spender",
          "type": "address"
        },
        {
          "name": "tokens",
          "type": "uint256"
        },
        {
          "name": "data",
          "type": "bytes"
        }
      ],
      "name": "approveAndCall",
      "outputs": [
        {
          "name": "success",
          "type": "bool"
        }
      ],
      "payable": false,
      "stateMutability": "nonpayable",
      "type": "function",
      "signature": "0xcae9ca51"
    },
    {
      "constant": false,
      "inputs": [
        {
          "name": "tokenAddress",
          "type": "address"
        },
        {
          "name": "tokens",
          "type": "uint256"
        }
      ],
      "name": "transferAnyERC20Token",
      "outputs": [
        {
          "name": "success",
          "type": "bool"
        }
      ],
      "payable": false,
      "stateMutability": "nonpayable",
      "type": "function",
      "signature": "0xdc39d06d"
    }
  ],
  "bytecode": "0x60806040523480156200001157600080fd5b50336000806101000a81548173ffffffffffffffffffffffffffffffffffffffff021916908373ffffffffffffffffffffffffffffffffffffffff1602179055506040805190810160405280600681526020017f4e494641524d0000000000000000000000000000000000000000000000000000815250600290805190602001906200009f92919062000217565b506040805190810160405280600381526020017f4e4946000000000000000000000000000000000000000000000000000000000081525060039080519060200190620000ed92919062000217565b506040805190810160405280600e81526020017f4e494620546f6b656e2076312e30000000000000000000000000000000000000815250600490805190602001906200013b92919062000217565b506012600560006101000a81548160ff021916908360ff1602179055506301312d00600681905550600654600760003373ffffffffffffffffffffffffffffffffffffffff1673ffffffffffffffffffffffffffffffffffffffff168152602001908152602001600020819055503373ffffffffffffffffffffffffffffffffffffffff16600073ffffffffffffffffffffffffffffffffffffffff167fddf252ad1be2c89b69c2b068fc378daa952ba7f163c4a11628f55a4df523b3ef6006546040518082815260200191505060405180910390a3620002c6565b828054600181600116156101000203166002900490600052602060002090601f016020900481019282601f106200025a57805160ff19168380011785556200028b565b828001600101855582156200028b579182015b828111156200028a5782518255916020019190600101906200026d565b5b5090506200029a91906200029e565b5090565b620002c391905b80821115620002bf576000816000905550600101620002a5565b5090565b90565b61202780620002d66000396000f3fe608060405260043610610133576000357c0100000000000000000000000000000000000000000000000000000000900463ffffffff16806306fdde03146101a1578063095ea7b31461023157806318160ddd146102a457806323b872dd146102cf57806327e235e314610362578063313ce567146103c75780633eaaf86b146103f85780635a3b7e42146104235780635c658165146104b357806370a082311461053857806379ba50971461059d5780638da5cb5b146105b457806395d89b411461060b578063a293d1e81461069b578063a9059cbb146106f4578063b5931f7c14610767578063cae9ca51146107c0578063d05c78da146108ca578063d4ee1d9014610923578063dc39d06d1461097a578063dd62ed3e146109ed578063e6cb901314610a72578063f2fde38b14610acb575b6040517f08c379a000000000000000000000000000000000000000000000000000000000815260040180806020018281038252601d8152602001807f63616e742061636365707420616e797468696e67207468616e204e494600000081525060200191505060405180910390fd5b3480156101ad57600080fd5b506101b6610b1c565b6040518080602001828103825283818151815260200191508051906020019080838360005b838110156101f65780820151818401526020810190506101db565b50505050905090810190601f1680156102235780820380516001836020036101000a031916815260200191505b509250505060405180910390f35b34801561023d57600080fd5b5061028a6004803603604081101561025457600080fd5b81019080803573ffffffffffffffffffffffffffffffffffffffff16906020019092919080359060200190929190505050610bba565b604051808215151515815260200191505060405180910390f35b3480156102b057600080fd5b506102b9610cac565b6040518082815260200191505060405180910390f35b3480156102db57600080fd5b50610348600480360360608110156102f257600080fd5b81019080803573ffffffffffffffffffffffffffffffffffffffff169060200190929190803573ffffffffffffffffffffffffffffffffffffffff16906020019092919080359060200190929190505050610cb6565b604051808215151515815260200191505060405180910390f35b34801561036e57600080fd5b506103b16004803603602081101561038557600080fd5b81019080803573ffffffffffffffffffffffffffffffffffffffff1690602001909291905050506110c1565b6040518082815260200191505060405180910390f35b3480156103d357600080fd5b506103dc6110d9565b604051808260ff1660ff16815260200191505060405180910390f35b34801561040457600080fd5b5061040d6110ec565b6040518082815260200191505060405180910390f35b34801561042f57600080fd5b506104386110f2565b6040518080602001828103825283818151815260200191508051906020019080838360005b8381101561047857808201518184015260208101905061045d565b50505050905090810190601f1680156104a55780820380516001836020036101000a031916815260200191505b509250505060405180910390f35b3480156104bf57600080fd5b50610522600480360360408110156104d657600080fd5b81019080803573ffffffffffffffffffffffffffffffffffffffff169060200190929190803573ffffffffffffffffffffffffffffffffffffffff169060200190929190505050611190565b6040518082815260200191505060405180910390f35b34801561054457600080fd5b506105876004803603602081101561055b57600080fd5b81019080803573ffffffffffffffffffffffffffffffffffffffff1690602001909291905050506111b5565b6040518082815260200191505060405180910390f35b3480156105a957600080fd5b506105b26111fe565b005b3480156105c057600080fd5b506105c961142c565b604051808273ffffffffffffffffffffffffffffffffffffffff1673ffffffffffffffffffffffffffffffffffffffff16815260200191505060405180910390f35b34801561061757600080fd5b50610620611451565b6040518080602001828103825283818151815260200191508051906020019080838360005b83811015610660578082015181840152602081019050610645565b50505050905090810190601f16801561068d5780820380516001836020036101000a031916815260200191505b509250505060405180910390f35b3480156106a757600080fd5b506106de600480360360408110156106be57600080fd5b8101908080359060200190929190803590602001909291905050506114ef565b6040518082815260200191505060405180910390f35b34801561070057600080fd5b5061074d6004803603604081101561071757600080fd5b81019080803573ffffffffffffffffffffffffffffffffffffffff16906020019092919080359060200190929190505050611577565b604051808215151515815260200191505060405180910390f35b34801561077357600080fd5b506107aa6004803603604081101561078a57600080fd5b8101908080359060200190929190803590602001909291905050506117dd565b6040518082815260200191505060405180910390f35b3480156107cc57600080fd5b506108b0600480360360608110156107e357600080fd5b81019080803573ffffffffffffffffffffffffffffffffffffffff169060200190929190803590602001909291908035906020019064010000000081111561082a57600080fd5b82018360208201111561083c57600080fd5b8035906020019184600183028401116401000000008311171561085e57600080fd5b91908080601f016020809104026020016040519081016040528093929190818152602001838380828437600081840152601f19601f82011690508083019250505050505050919291929050505061186d565b604051808215151515815260200191505060405180910390f35b3480156108d657600080fd5b5061090d600480360360408110156108ed57600080fd5b810190808035906020019092919080359060200190929190505050611abc565b6040518082815260200191505060405180910390f35b34801561092f57600080fd5b50610938611b7f565b604051808273ffffffffffffffffffffffffffffffffffffffff1673ffffffffffffffffffffffffffffffffffffffff16815260200191505060405180910390f35b34801561098657600080fd5b506109d36004803603604081101561099d57600080fd5b81019080803573ffffffffffffffffffffffffffffffffffffffff16906020019092919080359060200190929190505050611ba5565b604051808215151515815260200191505060405180910390f35b3480156109f957600080fd5b50610a5c60048036036040811015610a1057600080fd5b81019080803573ffffffffffffffffffffffffffffffffffffffff169060200190929190803573ffffffffffffffffffffffffffffffffffffffff169060200190929190505050611d98565b6040518082815260200191505060405180910390f35b348015610a7e57600080fd5b50610ab560048036036040811015610a9557600080fd5b810190808035906020019092919080359060200190929190505050611e1f565b6040518082815260200191505060405180910390f35b348015610ad757600080fd5b50610b1a60048036036020811015610aee57600080fd5b81019080803573ffffffffffffffffffffffffffffffffffffffff169060200190929190505050611ecd565b005b60028054600181600116156101000203166002900480601f016020809104026020016040519081016040528092919081815260200182805460018160011615610100020316600290048015610bb25780601f10610b8757610100808354040283529160200191610bb2565b820191906000526020600020905b815481529060010190602001808311610b9557829003601f168201915b505050505081565b600081600860003373ffffffffffffffffffffffffffffffffffffffff1673ffffffffffffffffffffffffffffffffffffffff16815260200190815260200160002060008573ffffffffffffffffffffffffffffffffffffffff1673ffffffffffffffffffffffffffffffffffffffff168152602001908152602001600020819055508273ffffffffffffffffffffffffffffffffffffffff163373ffffffffffffffffffffffffffffffffffffffff167f8c5be1e5ebec7d5bd14f71427d1e84f3dd0314c0f7b2291e5b200ac8c7c3b925846040518082815260200191505060405180910390a36001905092915050565b6000600654905090565b600081600760008673ffffffffffffffffffffffffffffffffffffffff1673ffffffffffffffffffffffffffffffffffffffff1681526020019081526020016000205410151515610d95576040517f08c379a00000000000000000000000000000000000000000000000000000000081526004018080602001828103825260278152602001807f53686f756c6420686176652062616c616e6365206d6f7265207468616e20746881526020017f652076616c75650000000000000000000000000000000000000000000000000081525060400191505060405180910390fd5b81600860008673ffffffffffffffffffffffffffffffffffffffff1673ffffffffffffffffffffffffffffffffffffffff16815260200190815260200160002060003373ffffffffffffffffffffffffffffffffffffffff1673ffffffffffffffffffffffffffffffffffffffff1681526020019081526020016000205410151515610eaf576040517f08c379a00000000000000000000000000000000000000000000000000000000081526004018080602001828103825260278152602001807f616c6c6f77616e63652073686f756c64206265206d6f7265207468616e20746881526020017f652076616c75650000000000000000000000000000000000000000000000000081525060400191505060405180910390fd5b610ef8600760008673ffffffffffffffffffffffffffffffffffffffff1673ffffffffffffffffffffffffffffffffffffffff16815260200190815260200160002054836114ef565b600760008673ffffffffffffffffffffffffffffffffffffffff1673ffffffffffffffffffffffffffffffffffffffff16815260200190815260200160002081905550610f84600760008573ffffffffffffffffffffffffffffffffffffffff1673ffffffffffffffffffffffffffffffffffffffff1681526020019081526020016000205483611e1f565b600760008573ffffffffffffffffffffffffffffffffffffffff1673ffffffffffffffffffffffffffffffffffffffff1681526020019081526020016000208190555081600860008673ffffffffffffffffffffffffffffffffffffffff1673ffffffffffffffffffffffffffffffffffffffff16815260200190815260200160002060003373ffffffffffffffffffffffffffffffffffffffff1673ffffffffffffffffffffffffffffffffffffffff168152602001908152602001600020600082825403925050819055508273ffffffffffffffffffffffffffffffffffffffff168473ffffffffffffffffffffffffffffffffffffffff167fddf252ad1be2c89b69c2b068fc378daa952ba7f163c4a11628f55a4df523b3ef846040518082815260200191505060405180910390a3600190509392505050565b60076020528060005260406000206000915090505481565b600560009054906101000a900460ff1681565b60065481565b60048054600181600116156101000203166002900480601f0160208091040260200160405190810160405280929190818152602001828054600181600116156101000203166002900480156111885780601f1061115d57610100808354040283529160200191611188565b820191906000526020600020905b81548152906001019060200180831161116b57829003601f168201915b505050505081565b6008602052816000526040600020602052806000526040600020600091509150505481565b6000600760008373ffffffffffffffffffffffffffffffffffffffff1673ffffffffffffffffffffffffffffffffffffffff168152602001908152602001600020549050919050565b600160009054906101000a900473ffffffffffffffffffffffffffffffffffffffff1673ffffffffffffffffffffffffffffffffffffffff163373ffffffffffffffffffffffffffffffffffffffff161415156112e9576040517f08c379a00000000000000000000000000000000000000000000000000000000081526004018080602001828103825260278152602001807f53656e6465722048617320746f20626520657175616c20746f20746865206e6581526020017f77206f776e65720000000000000000000000000000000000000000000000000081525060400191505060405180910390fd5b600160009054906101000a900473ffffffffffffffffffffffffffffffffffffffff1673ffffffffffffffffffffffffffffffffffffffff166000809054906101000a900473ffffffffffffffffffffffffffffffffffffffff1673ffffffffffffffffffffffffffffffffffffffff167f8be0079c531659141344cd1fd0a4f28419497f9722a3daafe3b4186f6b6457e060405160405180910390a3600160009054906101000a900473ffffffffffffffffffffffffffffffffffffffff166000806101000a81548173ffffffffffffffffffffffffffffffffffffffff021916908373ffffffffffffffffffffffffffffffffffffffff1602179055506000600160006101000a81548173ffffffffffffffffffffffffffffffffffffffff021916908373ffffffffffffffffffffffffffffffffffffffff160217905550565b6000809054906101000a900473ffffffffffffffffffffffffffffffffffffffff1681565b60038054600181600116156101000203166002900480601f0160208091040260200160405190810160405280929190818152602001828054600181600116156101000203166002900480156114e75780601f106114bc576101008083540402835291602001916114e7565b820191906000526020600020905b8154815290600101906020018083116114ca57829003601f168201915b505050505081565b6000828211151515611569576040517f08c379a000000000000000000000000000000000000000000000000000000000815260040180806020018281038252601e8152602001807f422073686f756c64206265206c657373206f7220657175616c20746f2061000081525060200191505060405180910390fd5b818303905080905092915050565b600081600760003373ffffffffffffffffffffffffffffffffffffffff1673ffffffffffffffffffffffffffffffffffffffff1681526020019081526020016000205410151515611656576040517f08c379a00000000000000000000000000000000000000000000000000000000081526004018080602001828103825260268152602001807f54686973204163636f756e7420646f65736e74206861766520656e6f7567682081526020017f746f6b656e73000000000000000000000000000000000000000000000000000081525060400191505060405180910390fd5b61169f600760003373ffffffffffffffffffffffffffffffffffffffff1673ffffffffffffffffffffffffffffffffffffffff16815260200190815260200160002054836114ef565b600760003373ffffffffffffffffffffffffffffffffffffffff1673ffffffffffffffffffffffffffffffffffffffff1681526020019081526020016000208190555061172b600760008573ffffffffffffffffffffffffffffffffffffffff1673ffffffffffffffffffffffffffffffffffffffff1681526020019081526020016000205483611e1f565b600760008573ffffffffffffffffffffffffffffffffffffffff1673ffffffffffffffffffffffffffffffffffffffff168152602001908152602001600020819055508273ffffffffffffffffffffffffffffffffffffffff163373ffffffffffffffffffffffffffffffffffffffff167fddf252ad1be2c89b69c2b068fc378daa952ba7f163c4a11628f55a4df523b3ef846040518082815260200191505060405180910390a36001905092915050565b60008082111515611856576040517f08c379a000000000000000000000000000000000000000000000000000000000815260040180806020018281038252601a8152602001807f622073686f756c642062652067726561746572207468616e203000000000000081525060200191505060405180910390fd5b818381151561186157fe5b04905080905092915050565b600082600860003373ffffffffffffffffffffffffffffffffffffffff1673ffffffffffffffffffffffffffffffffffffffff16815260200190815260200160002060008673ffffffffffffffffffffffffffffffffffffffff1673ffffffffffffffffffffffffffffffffffffffff168152602001908152602001600020819055508373ffffffffffffffffffffffffffffffffffffffff163373ffffffffffffffffffffffffffffffffffffffff167f8c5be1e5ebec7d5bd14f71427d1e84f3dd0314c0f7b2291e5b200ac8c7c3b925856040518082815260200191505060405180910390a38373ffffffffffffffffffffffffffffffffffffffff16638f4ffcb1338530866040518563ffffffff167c0100000000000000000000000000000000000000000000000000000000028152600401808573ffffffffffffffffffffffffffffffffffffffff1673ffffffffffffffffffffffffffffffffffffffff1681526020018481526020018373ffffffffffffffffffffffffffffffffffffffff1673ffffffffffffffffffffffffffffffffffffffff16815260200180602001828103825283818151815260200191508051906020019080838360005b83811015611a4a578082015181840152602081019050611a2f565b50505050905090810190601f168015611a775780820380516001836020036101000a031916815260200191505b5095505050505050600060405180830381600087803b158015611a9957600080fd5b505af1158015611aad573d6000803e3d6000fd5b50505050600190509392505050565b600081830290506000831480611adc5750818382811515611ad957fe5b04145b1515611b76576040517f08c379a00000000000000000000000000000000000000000000000000000000081526004018080602001828103825260328152602001807f612073686f756c6420626520657175616c20746f2030206f7220632f6120736881526020017f6f756c6420626520657175616c20746f2062000000000000000000000000000081525060400191505060405180910390fd5b80905092915050565b600160009054906101000a900473ffffffffffffffffffffffffffffffffffffffff1681565b60008060009054906101000a900473ffffffffffffffffffffffffffffffffffffffff1673ffffffffffffffffffffffffffffffffffffffff163373ffffffffffffffffffffffffffffffffffffffff16141515611c91576040517f08c379a00000000000000000000000000000000000000000000000000000000081526004018080602001828103825260248152602001807f2053656e6465722048617320746f20626520657175616c20746f20746865206f81526020017f776e65720000000000000000000000000000000000000000000000000000000081525060400191505060405180910390fd5b8273ffffffffffffffffffffffffffffffffffffffff1663a9059cbb6000809054906101000a900473ffffffffffffffffffffffffffffffffffffffff16846040518363ffffffff167c0100000000000000000000000000000000000000000000000000000000028152600401808373ffffffffffffffffffffffffffffffffffffffff1673ffffffffffffffffffffffffffffffffffffffff16815260200182815260200192505050602060405180830381600087803b158015611d5557600080fd5b505af1158015611d69573d6000803e3d6000fd5b505050506040513d6020811015611d7f57600080fd5b8101908080519060200190929190505050905092915050565b6000600860008473ffffffffffffffffffffffffffffffffffffffff1673ffffffffffffffffffffffffffffffffffffffff16815260200190815260200160002060008373ffffffffffffffffffffffffffffffffffffffff1673ffffffffffffffffffffffffffffffffffffffff16815260200190815260200160002054905092915050565b60008183019050828110151515611ec4576040517f08c379a00000000000000000000000000000000000000000000000000000000081526004018080602001828103825260218152602001807f432073686f756c642062652067726561746572206f7220657175616c20746f2081526020017f610000000000000000000000000000000000000000000000000000000000000081525060400191505060405180910390fd5b80905092915050565b6000809054906101000a900473ffffffffffffffffffffffffffffffffffffffff1673ffffffffffffffffffffffffffffffffffffffff163373ffffffffffffffffffffffffffffffffffffffff16141515611fb7576040517f08c379a00000000000000000000000000000000000000000000000000000000081526004018080602001828103825260248152602001807f2053656e6465722048617320746f20626520657175616c20746f20746865206f81526020017f776e65720000000000000000000000000000000000000000000000000000000081525060400191505060405180910390fd5b80600160006101000a81548173ffffffffffffffffffffffffffffffffffffffff021916908373ffffffffffffffffffffffffffffffffffffffff1602179055505056fea165627a7a72305820c5fc8026ae06461778a79aa457914391c3f6e3f8197192519421fc4aefedd8b50029",
  "source": "pragma solidity >=0.4.21 <0.6.0;\n\n// ----------------------------------------------------------------------------\n// Safe maths\n// ----------------------------------------------------------------------------\ncontract SafeMath {\n    function safeAdd(uint a, uint b) public pure returns (uint c) {\n        c = a + b;\n        require(c >= a,\"C should be greater or equal to a\");\n        return c;\n    }\n    function safeSub(uint a, uint b) public pure returns (uint c) {\n        require(b <= a,\"B should be less or equal to a\");\n        c = a - b;\n        return c;\n    }\n    function safeMul(uint a, uint b) public pure returns (uint c) {\n        c = a * b;\n        require(a == 0 || c / a == b,\"a should be equal to 0 or c/a should be equal to b\");\n        return c;\n    }\n    function safeDiv(uint a, uint b) public pure returns (uint c) {\n        require(b > 0,\"b should be greater than 0\");\n        c = a / b;\n        return c;\n    }\n}\n\n// ----------------------------------------------------------------------------\n// ERC Token Standard #20 Interface\n// https://github.com/ethereum/EIPs/blob/master/EIPS/eip-20.md\n// ----------------------------------------------------------------------------\ncontract ERC20Interface {\n    function totalSupply() public view returns (uint);\n    function balanceOf(address tokenOwner) public view returns (uint balance);\n    function allowance(address tokenOwner, address spender) public view returns (uint remaining);\n    function transfer(address to, uint tokens) public returns (bool success);\n    function approve(address spender, uint tokens) public returns (bool success);\n    function transferFrom(address from, address to, uint tokens) public returns (bool success);\n\n    event Transfer(address indexed from, address indexed to, uint tokens);\n    event Approval(address indexed tokenOwner, address indexed spender, uint tokens);\n}\n\n// ----------------------------------------------------------------------------\n// Contract function to receive approval and execute function in one call\n// ----------------------------------------------------------------------------\ncontract ApproveAndCallFallBack {\n    function receiveApproval(address from, uint256 tokens, address token, bytes memory data) public;\n}\n\n// ----------------------------------------------------------------------------\n// Owned contract\n// ----------------------------------------------------------------------------\ncontract Owned {\n    address public owner;\n    address public newOwner;\n\n    event OwnershipTransferred(address indexed _from, address indexed _to);\n\n    constructor() public {\n        owner = msg.sender;\n    }\n\n    modifier onlyOwner {\n        require(msg.sender == owner,\" Sender Has to be equal to the owner\");\n        _;\n    }\n\n    function transferOwnership(address _newOwner) public onlyOwner {\n        newOwner = _newOwner;\n    }\n    function acceptOwnership() public {\n        require(msg.sender == newOwner,\"Sender Has to be equal to the new owner\");\n        emit OwnershipTransferred(owner, newOwner);\n        owner = newOwner;\n        newOwner = address(0);\n    }\n}\n\n// ----------------------------------------------------------------------------\n// The main Contract\n// ----------------------------------------------------------------------------\ncontract nifarm is ERC20Interface, SafeMath, Owned{\n    \n    //vairable\n    string public name;\n    string public symbol;\n    string public standard;\n    uint8 public decimals;\n    uint256 public _totalSupply;\n    mapping(address => uint256) public balances;\n    mapping(address => mapping(address => uint256)) public allowed;\n    \n    //Events\n    event Approval (\n        address indexed _owner,\n        address indexed _spender,\n        uint256 _value\n    );\n\n    event Transfer (\n        address indexed _from,\n        address indexed _to,\n        uint256 _value\n    );\n\n    //constructor\n    constructor() public {\n        name = \"NIFARM\";\n        symbol = \"NIF\";\n        standard = \"NIF Token v1.0\";\n        decimals = 18;\n        _totalSupply = 20000000;\n        //alocate the initial supply.\n        balances[msg.sender] = _totalSupply;\n        emit Transfer(address(0), msg.sender, _totalSupply);\n    }\n\n    // ------------------------------------------------------------------------\n    // Total supply\n    // ------------------------------------------------------------------------\n    function totalSupply() public view returns (uint) {\n        return _totalSupply; // - balances[address(0)];\n    }\n\n    // ------------------------------------------------------------------------\n    // Get the token balance for account tokenOwner\n    // ------------------------------------------------------------------------\n    function balanceOf(address tokenOwner) public view returns (uint balance) {\n        return balances[tokenOwner];\n    }\n\n    // ------------------------------------------------------------------------\n    // Returns the amount of tokens approved by the owner that can be\n    // transferred to the spender's account\n    // ------------------------------------------------------------------------\n    function allowance(address tokenOwner, address spender) public view returns (uint remaining) {\n        return allowed[tokenOwner][spender];\n    }\n\n    function transfer(address _to, uint256 _value) public returns ( bool success){\n        require(balances[msg.sender] >= _value,\"This Account doesnt have enough tokens\");\n        balances[msg.sender] = safeSub(balances[msg.sender], _value);\n        balances[_to] = safeAdd(balances[_to], _value);\n        emit Transfer(msg.sender,_to,_value);\n        return true;\n    }\n\n    function approve(address _spender, uint256 _value) public returns (bool success) {\n        allowed[msg.sender][_spender] = _value;\n        emit Approval(msg.sender, _spender, _value);\n        return true;\n    }\n\n    function transferFrom(address _from,address _to, uint256 _value ) public returns (bool success){\n        //Checks the Balance before spending. If it gives an error the transfer wont occur\n        require(balances[_from] >= _value,\"Should have balance more than the value\");\n        require(allowed[_from][msg.sender] >= _value,\"allowance should be more than the value\");\n        //The actual transfer of tokens is occuring.\n        balances[_from] = safeSub(balances[_from], _value);\n        balances[_to] = safeAdd(balances[_to], _value);\n        //Allowance if getting spent\n        allowed[_from][msg.sender] -= _value;\n        //The transfer emmits to store the transaction.\n        emit Transfer(_from,_to,_value);\n        //returns true if everything above gets executed successfully.\n        return true;\n    }\n\n    // ------------------------------------------------------------------------\n    // Token owner can approve for `spender` to transferFrom(...) `tokens`\n    // from the token owner's account. The `spender` contract function\n    // `receiveApproval(...)` is then executed\n    // ------------------------------------------------------------------------\n    function approveAndCall(address spender, uint tokens, bytes memory data) public returns (bool success) {\n        allowed[msg.sender][spender] = tokens;\n        emit Approval(msg.sender, spender, tokens);\n        ApproveAndCallFallBack(spender).receiveApproval(msg.sender, tokens, address(this), data);\n        return true;\n    }\n\n\n    // ------------------------------------------------------------------------\n    // Don't accept ETH\n    // ------------------------------------------------------------------------\n    function () external payable {\n        revert(\"cant accept anything than NIF\");\n    }\n\n    // ------------------------------------------------------------------------\n    // Owner can transfer out any accidentally sent ERC20 tokens\n    // ------------------------------------------------------------------------\n    function transferAnyERC20Token(address tokenAddress, uint tokens) public onlyOwner returns (bool success) {\n        return ERC20Interface(tokenAddress).transfer(owner, tokens);\n    }\n}",
  "sourcePath": "/home/danyal/gitRepos/Devprovider/nifarm/contracts/nifarm.sol",
  "compiler": {
    "name": "solc",
    "version": "0.5.0+commit.1d4f565a.Emscripten.clang"
  },
  "schemaVersion": "3.0.2",
  "updatedAt": "2019-02-19T07:34:11.954Z",
  "devdoc": {
    "methods": {}
  },
  "userdoc": {
    "methods": {}
  }
}